{
  "_format": "hh-sol-artifact-1",
  "contractName": "EthereumNFT",
  "sourceName": "contracts/EthereumNFT.sol",
  "abi": [
    {
      "inputs": [
        {
          "internalType": "string",
          "name": "_name",
          "type": "string"
        },
        {
          "internalType": "string",
          "name": "_symbol",
          "type": "string"
        },
        {
          "internalType": "string",
          "name": "_initBaseURI",
          "type": "string"
        },
        {
          "internalType": "uint256",
          "name": "_maxSupply",
          "type": "uint256"
        },
        {
          "internalType": "uint256",
          "name": "_maxPurchaseAmount",
          "type": "uint256"
        },
        {
          "internalType": "uint256",
          "name": "_initialPrice",
          "type": "uint256"
        },
        {
          "internalType": "uint256",
          "name": "_reserve",
          "type": "uint256"
        }
      ],
      "stateMutability": "nonpayable",
      "type": "constructor"
    },
    {
      "anonymous": false,
      "inputs": [
        {
          "indexed": true,
          "internalType": "address",
          "name": "owner",
          "type": "address"
        },
        {
          "indexed": true,
          "internalType": "address",
          "name": "approved",
          "type": "address"
        },
        {
          "indexed": true,
          "internalType": "uint256",
          "name": "tokenId",
          "type": "uint256"
        }
      ],
      "name": "Approval",
      "type": "event"
    },
    {
      "anonymous": false,
      "inputs": [
        {
          "indexed": true,
          "internalType": "address",
          "name": "owner",
          "type": "address"
        },
        {
          "indexed": true,
          "internalType": "address",
          "name": "operator",
          "type": "address"
        },
        {
          "indexed": false,
          "internalType": "bool",
          "name": "approved",
          "type": "bool"
        }
      ],
      "name": "ApprovalForAll",
      "type": "event"
    },
    {
      "anonymous": false,
      "inputs": [
        {
          "indexed": true,
          "internalType": "address",
          "name": "previousOwner",
          "type": "address"
        },
        {
          "indexed": true,
          "internalType": "address",
          "name": "newOwner",
          "type": "address"
        }
      ],
      "name": "OwnershipTransferred",
      "type": "event"
    },
    {
      "anonymous": false,
      "inputs": [
        {
          "indexed": true,
          "internalType": "address",
          "name": "from",
          "type": "address"
        },
        {
          "indexed": true,
          "internalType": "address",
          "name": "to",
          "type": "address"
        },
        {
          "indexed": true,
          "internalType": "uint256",
          "name": "tokenId",
          "type": "uint256"
        }
      ],
      "name": "Transfer",
      "type": "event"
    },
    {
      "inputs": [],
      "name": "activateSale",
      "outputs": [],
      "stateMutability": "nonpayable",
      "type": "function"
    },
    {
      "inputs": [
        {
          "internalType": "address",
          "name": "to",
          "type": "address"
        },
        {
          "internalType": "uint256",
          "name": "tokenId",
          "type": "uint256"
        }
      ],
      "name": "approve",
      "outputs": [],
      "stateMutability": "nonpayable",
      "type": "function"
    },
    {
      "inputs": [
        {
          "internalType": "address",
          "name": "owner",
          "type": "address"
        }
      ],
      "name": "balanceOf",
      "outputs": [
        {
          "internalType": "uint256",
          "name": "",
          "type": "uint256"
        }
      ],
      "stateMutability": "view",
      "type": "function"
    },
    {
      "inputs": [],
      "name": "baseURI",
      "outputs": [
        {
          "internalType": "string",
          "name": "",
          "type": "string"
        }
      ],
      "stateMutability": "view",
      "type": "function"
    },
    {
      "inputs": [
        {
          "internalType": "uint256",
          "name": "tokenId",
          "type": "uint256"
        }
      ],
      "name": "getApproved",
      "outputs": [
        {
          "internalType": "address",
          "name": "",
          "type": "address"
        }
      ],
      "stateMutability": "view",
      "type": "function"
    },
    {
      "inputs": [
        {
          "internalType": "address",
          "name": "owner",
          "type": "address"
        },
        {
          "internalType": "address",
          "name": "operator",
          "type": "address"
        }
      ],
      "name": "isApprovedForAll",
      "outputs": [
        {
          "internalType": "bool",
          "name": "",
          "type": "bool"
        }
      ],
      "stateMutability": "view",
      "type": "function"
    },
    {
      "inputs": [],
      "name": "maxPurchaseAmount",
      "outputs": [
        {
          "internalType": "uint256",
          "name": "",
          "type": "uint256"
        }
      ],
      "stateMutability": "view",
      "type": "function"
    },
    {
      "inputs": [],
      "name": "maxSupply",
      "outputs": [
        {
          "internalType": "uint256",
          "name": "",
          "type": "uint256"
        }
      ],
      "stateMutability": "view",
      "type": "function"
    },
    {
      "inputs": [
        {
          "internalType": "uint256",
          "name": "numberOfTokens",
          "type": "uint256"
        }
      ],
      "name": "mintNFT",
      "outputs": [],
      "stateMutability": "payable",
      "type": "function"
    },
    {
      "inputs": [],
      "name": "name",
      "outputs": [
        {
          "internalType": "string",
          "name": "",
          "type": "string"
        }
      ],
      "stateMutability": "view",
      "type": "function"
    },
    {
      "inputs": [],
      "name": "owner",
      "outputs": [
        {
          "internalType": "address",
          "name": "",
          "type": "address"
        }
      ],
      "stateMutability": "view",
      "type": "function"
    },
    {
      "inputs": [
        {
          "internalType": "uint256",
          "name": "tokenId",
          "type": "uint256"
        }
      ],
      "name": "ownerOf",
      "outputs": [
        {
          "internalType": "address",
          "name": "",
          "type": "address"
        }
      ],
      "stateMutability": "view",
      "type": "function"
    },
    {
      "inputs": [],
      "name": "price",
      "outputs": [
        {
          "internalType": "uint256",
          "name": "",
          "type": "uint256"
        }
      ],
      "stateMutability": "view",
      "type": "function"
    },
    {
      "inputs": [],
      "name": "renounceOwnership",
      "outputs": [],
      "stateMutability": "nonpayable",
      "type": "function"
    },
    {
      "inputs": [],
      "name": "reserve",
      "outputs": [
        {
          "internalType": "uint256",
          "name": "",
          "type": "uint256"
        }
      ],
      "stateMutability": "view",
      "type": "function"
    },
    {
      "inputs": [
        {
          "internalType": "address",
          "name": "_to",
          "type": "address"
        },
        {
          "internalType": "uint256",
          "name": "_reserveAmount",
          "type": "uint256"
        }
      ],
      "name": "reserveTokens",
      "outputs": [],
      "stateMutability": "nonpayable",
      "type": "function"
    },
    {
      "inputs": [
        {
          "internalType": "address",
          "name": "from",
          "type": "address"
        },
        {
          "internalType": "address",
          "name": "to",
          "type": "address"
        },
        {
          "internalType": "uint256",
          "name": "tokenId",
          "type": "uint256"
        }
      ],
      "name": "safeTransferFrom",
      "outputs": [],
      "stateMutability": "nonpayable",
      "type": "function"
    },
    {
      "inputs": [
        {
          "internalType": "address",
          "name": "from",
          "type": "address"
        },
        {
          "internalType": "address",
          "name": "to",
          "type": "address"
        },
        {
          "internalType": "uint256",
          "name": "tokenId",
          "type": "uint256"
        },
        {
          "internalType": "bytes",
          "name": "data",
          "type": "bytes"
        }
      ],
      "name": "safeTransferFrom",
      "outputs": [],
      "stateMutability": "nonpayable",
      "type": "function"
    },
    {
      "inputs": [],
      "name": "saleIsActive",
      "outputs": [
        {
          "internalType": "bool",
          "name": "",
          "type": "bool"
        }
      ],
      "stateMutability": "view",
      "type": "function"
    },
    {
      "inputs": [
        {
          "internalType": "address",
          "name": "operator",
          "type": "address"
        },
        {
          "internalType": "bool",
          "name": "approved",
          "type": "bool"
        }
      ],
      "name": "setApprovalForAll",
      "outputs": [],
      "stateMutability": "nonpayable",
      "type": "function"
    },
    {
      "inputs": [
        {
          "internalType": "uint256",
          "name": "newPrice",
          "type": "uint256"
        }
      ],
      "name": "setPrice",
      "outputs": [],
      "stateMutability": "nonpayable",
      "type": "function"
    },
    {
      "inputs": [
        {
          "internalType": "bytes4",
          "name": "interfaceId",
          "type": "bytes4"
        }
      ],
      "name": "supportsInterface",
      "outputs": [
        {
          "internalType": "bool",
          "name": "",
          "type": "bool"
        }
      ],
      "stateMutability": "view",
      "type": "function"
    },
    {
      "inputs": [],
      "name": "symbol",
      "outputs": [
        {
          "internalType": "string",
          "name": "",
          "type": "string"
        }
      ],
      "stateMutability": "view",
      "type": "function"
    },
    {
      "inputs": [
        {
          "internalType": "uint256",
          "name": "index",
          "type": "uint256"
        }
      ],
      "name": "tokenByIndex",
      "outputs": [
        {
          "internalType": "uint256",
          "name": "",
          "type": "uint256"
        }
      ],
      "stateMutability": "view",
      "type": "function"
    },
    {
      "inputs": [
        {
          "internalType": "address",
          "name": "owner",
          "type": "address"
        },
        {
          "internalType": "uint256",
          "name": "index",
          "type": "uint256"
        }
      ],
      "name": "tokenOfOwnerByIndex",
      "outputs": [
        {
          "internalType": "uint256",
          "name": "",
          "type": "uint256"
        }
      ],
      "stateMutability": "view",
      "type": "function"
    },
    {
      "inputs": [
        {
          "internalType": "uint256",
          "name": "tokenId",
          "type": "uint256"
        }
      ],
      "name": "tokenURI",
      "outputs": [
        {
          "internalType": "string",
          "name": "",
          "type": "string"
        }
      ],
      "stateMutability": "view",
      "type": "function"
    },
    {
      "inputs": [],
      "name": "totalSupply",
      "outputs": [
        {
          "internalType": "uint256",
          "name": "",
          "type": "uint256"
        }
      ],
      "stateMutability": "view",
      "type": "function"
    },
    {
      "inputs": [
        {
          "internalType": "address",
          "name": "from",
          "type": "address"
        },
        {
          "internalType": "address",
          "name": "to",
          "type": "address"
        },
        {
          "internalType": "uint256",
          "name": "tokenId",
          "type": "uint256"
        }
      ],
      "name": "transferFrom",
      "outputs": [],
      "stateMutability": "nonpayable",
      "type": "function"
    },
    {
      "inputs": [
        {
          "internalType": "address",
          "name": "newOwner",
          "type": "address"
        }
      ],
      "name": "transferOwnership",
      "outputs": [],
      "stateMutability": "nonpayable",
      "type": "function"
    },
    {
      "inputs": [],
      "name": "withdraw",
      "outputs": [],
      "stateMutability": "payable",
      "type": "function"
    }
  ],
  "bytecode": "0x60806040526000600a60146101000a81548160ff02191690831515021790555060405180602001604052806000815250600b908051906020019062000046929190620001fa565b506658d15e17628000600c556005600d556064600e556005600f553480156200006e57600080fd5b50604051620041ea380380620041ea833981810160405281019062000094919062000482565b86868160009080519060200190620000ae929190620001fa565b508060019080519060200190620000c7929190620001fa565b505050620000ea620000de6200012c60201b60201c565b6200013460201b60201c565b84600b908051906020019062000102929190620001fa565b5081600c8190555082600d8190555083600e8190555080600f8190555050505050505050620005f7565b600033905090565b6000600a60009054906101000a900473ffffffffffffffffffffffffffffffffffffffff16905081600a60006101000a81548173ffffffffffffffffffffffffffffffffffffffff021916908373ffffffffffffffffffffffffffffffffffffffff1602179055508173ffffffffffffffffffffffffffffffffffffffff168173ffffffffffffffffffffffffffffffffffffffff167f8be0079c531659141344cd1fd0a4f28419497f9722a3daafe3b4186f6b6457e060405160405180910390a35050565b8280546200020890620005c1565b90600052602060002090601f0160209004810192826200022c576000855562000278565b82601f106200024757805160ff191683800117855562000278565b8280016001018555821562000278579182015b82811115620002775782518255916020019190600101906200025a565b5b5090506200028791906200028b565b5090565b5b80821115620002a65760008160009055506001016200028c565b5090565b6000604051905090565b600080fd5b600080fd5b600080fd5b600080fd5b6000601f19601f8301169050919050565b7f4e487b7100000000000000000000000000000000000000000000000000000000600052604160045260246000fd5b6200031382620002c8565b810181811067ffffffffffffffff82111715620003355762000334620002d9565b5b80604052505050565b60006200034a620002aa565b905062000358828262000308565b919050565b600067ffffffffffffffff8211156200037b576200037a620002d9565b5b6200038682620002c8565b9050602081019050919050565b60005b83811015620003b357808201518184015260208101905062000396565b83811115620003c3576000848401525b50505050565b6000620003e0620003da846200035d565b6200033e565b905082815260208101848484011115620003ff57620003fe620002c3565b5b6200040c84828562000393565b509392505050565b600082601f8301126200042c576200042b620002be565b5b81516200043e848260208601620003c9565b91505092915050565b6000819050919050565b6200045c8162000447565b81146200046857600080fd5b50565b6000815190506200047c8162000451565b92915050565b600080600080600080600060e0888a031215620004a457620004a3620002b4565b5b600088015167ffffffffffffffff811115620004c557620004c4620002b9565b5b620004d38a828b0162000414565b975050602088015167ffffffffffffffff811115620004f757620004f6620002b9565b5b620005058a828b0162000414565b965050604088015167ffffffffffffffff811115620005295762000528620002b9565b5b620005378a828b0162000414565b95505060606200054a8a828b016200046b565b94505060806200055d8a828b016200046b565b93505060a0620005708a828b016200046b565b92505060c0620005838a828b016200046b565b91505092959891949750929550565b7f4e487b7100000000000000000000000000000000000000000000000000000000600052602260045260246000fd5b60006002820490506001821680620005da57607f821691505b60208210811415620005f157620005f062000592565b5b50919050565b613be380620006076000396000f3fe6080604052600436106101cd5760003560e01c80638da5cb5b116100f7578063c721f08d11610095578063e985e9c511610064578063e985e9c514610648578063eb8d244414610685578063f2fde38b146106b0578063f952fcad146106d9576101cd565b8063c721f08d1461059e578063c87b56dd146105b5578063cd3293de146105f2578063d5abeb011461061d576101cd565b806395d89b41116100d157806395d89b41146104f6578063a035b1fe14610521578063a22cb4651461054c578063b88d4fde14610575576101cd565b80638da5cb5b1461048657806391b7f5ed146104b157806392642744146104da576101cd565b80633ccfd60b1161016f5780636c0360eb1161013e5780636c0360eb146103de57806370a0823114610409578063715018a61461044657806378cf19e91461045d576101cd565b80633ccfd60b1461033157806342842e0e1461033b5780634f6ccce7146103645780636352211e146103a1576101cd565b8063095ea7b3116101ab578063095ea7b31461027757806318160ddd146102a057806323b872dd146102cb5780632f745c59146102f4576101cd565b806301ffc9a7146101d257806306fdde031461020f578063081812fc1461023a575b600080fd5b3480156101de57600080fd5b506101f960048036038101906101f49190612639565b610704565b6040516102069190612681565b60405180910390f35b34801561021b57600080fd5b5061022461077e565b6040516102319190612735565b60405180910390f35b34801561024657600080fd5b50610261600480360381019061025c919061278d565b610810565b60405161026e91906127fb565b60405180910390f35b34801561028357600080fd5b5061029e60048036038101906102999190612842565b610856565b005b3480156102ac57600080fd5b506102b561096e565b6040516102c29190612891565b60405180910390f35b3480156102d757600080fd5b506102f260048036038101906102ed91906128ac565b61097b565b005b34801561030057600080fd5b5061031b60048036038101906103169190612842565b6109db565b6040516103289190612891565b60405180910390f35b610339610a80565b005b34801561034757600080fd5b50610362600480360381019061035d91906128ac565b610b08565b005b34801561037057600080fd5b5061038b6004803603810190610386919061278d565b610b28565b6040516103989190612891565b60405180910390f35b3480156103ad57600080fd5b506103c860048036038101906103c3919061278d565b610b99565b6040516103d591906127fb565b60405180910390f35b3480156103ea57600080fd5b506103f3610c4b565b6040516104009190612735565b60405180910390f35b34801561041557600080fd5b50610430600480360381019061042b91906128ff565b610cd9565b60405161043d9190612891565b60405180910390f35b34801561045257600080fd5b5061045b610d91565b005b34801561046957600080fd5b50610484600480360381019061047f9190612842565b610da5565b005b34801561049257600080fd5b5061049b610e57565b6040516104a891906127fb565b60405180910390f35b3480156104bd57600080fd5b506104d860048036038101906104d3919061278d565b610e81565b005b6104f460048036038101906104ef919061278d565b610e93565b005b34801561050257600080fd5b5061050b611052565b6040516105189190612735565b60405180910390f35b34801561052d57600080fd5b506105366110e4565b6040516105439190612891565b60405180910390f35b34801561055857600080fd5b50610573600480360381019061056e9190612958565b6110ea565b005b34801561058157600080fd5b5061059c60048036038101906105979190612acd565b611100565b005b3480156105aa57600080fd5b506105b3611162565b005b3480156105c157600080fd5b506105dc60048036038101906105d7919061278d565b611187565b6040516105e99190612735565b60405180910390f35b3480156105fe57600080fd5b50610607611231565b6040516106149190612891565b60405180910390f35b34801561062957600080fd5b50610632611237565b60405161063f9190612891565b60405180910390f35b34801561065457600080fd5b5061066f600480360381019061066a9190612b50565b61123d565b60405161067c9190612681565b60405180910390f35b34801561069157600080fd5b5061069a6112d1565b6040516106a79190612681565b60405180910390f35b3480156106bc57600080fd5b506106d760048036038101906106d291906128ff565b6112e4565b005b3480156106e557600080fd5b506106ee611368565b6040516106fb9190612891565b60405180910390f35b60007f780e9d63000000000000000000000000000000000000000000000000000000007bffffffffffffffffffffffffffffffffffffffffffffffffffffffff1916827bffffffffffffffffffffffffffffffffffffffffffffffffffffffff1916148061077757506107768261136e565b5b9050919050565b60606000805461078d90612bbf565b80601f01602080910402602001604051908101604052809291908181526020018280546107b990612bbf565b80156108065780601f106107db57610100808354040283529160200191610806565b820191906000526020600020905b8154815290600101906020018083116107e957829003601f168201915b5050505050905090565b600061081b82611450565b6004600083815260200190815260200160002060009054906101000a900473ffffffffffffffffffffffffffffffffffffffff169050919050565b600061086182610b99565b90508073ffffffffffffffffffffffffffffffffffffffff168373ffffffffffffffffffffffffffffffffffffffff1614156108d2576040517f08c379a00000000000000000000000000000000000000000000000000000000081526004016108c990612c63565b60405180910390fd5b8073ffffffffffffffffffffffffffffffffffffffff166108f161149b565b73ffffffffffffffffffffffffffffffffffffffff161480610920575061091f8161091a61149b565b61123d565b5b61095f576040517f08c379a000000000000000000000000000000000000000000000000000000000815260040161095690612cf5565b60405180910390fd5b61096983836114a3565b505050565b6000600880549050905090565b61098c61098661149b565b8261155c565b6109cb576040517f08c379a00000000000000000000000000000000000000000000000000000000081526004016109c290612d87565b60405180910390fd5b6109d68383836115f1565b505050565b60006109e683610cd9565b8210610a27576040517f08c379a0000000000000000000000000000000000000000000000000000000008152600401610a1e90612e19565b60405180910390fd5b600660008473ffffffffffffffffffffffffffffffffffffffff1673ffffffffffffffffffffffffffffffffffffffff168152602001908152602001600020600083815260200190815260200160002054905092915050565b610a88611858565b6000610a92610e57565b73ffffffffffffffffffffffffffffffffffffffff1647604051610ab590612e6a565b60006040518083038185875af1925050503d8060008114610af2576040519150601f19603f3d011682016040523d82523d6000602084013e610af7565b606091505b5050905080610b0557600080fd5b50565b610b2383838360405180602001604052806000815250611100565b505050565b6000610b3261096e565b8210610b73576040517f08c379a0000000000000000000000000000000000000000000000000000000008152600401610b6a90612ef1565b60405180910390fd5b60088281548110610b8757610b86612f11565b5b90600052602060002001549050919050565b6000806002600084815260200190815260200160002060009054906101000a900473ffffffffffffffffffffffffffffffffffffffff169050600073ffffffffffffffffffffffffffffffffffffffff168173ffffffffffffffffffffffffffffffffffffffff161415610c42576040517f08c379a0000000000000000000000000000000000000000000000000000000008152600401610c3990612f8c565b60405180910390fd5b80915050919050565b600b8054610c5890612bbf565b80601f0160208091040260200160405190810160405280929190818152602001828054610c8490612bbf565b8015610cd15780601f10610ca657610100808354040283529160200191610cd1565b820191906000526020600020905b815481529060010190602001808311610cb457829003601f168201915b505050505081565b60008073ffffffffffffffffffffffffffffffffffffffff168273ffffffffffffffffffffffffffffffffffffffff161415610d4a576040517f08c379a0000000000000000000000000000000000000000000000000000000008152600401610d419061301e565b60405180910390fd5b600360008373ffffffffffffffffffffffffffffffffffffffff1673ffffffffffffffffffffffffffffffffffffffff168152602001908152602001600020549050919050565b610d99611858565b610da360006118d6565b565b610dad611858565b6000610db761096e565b9050600082118015610dcb5750600f548211155b610e0a576040517f08c379a0000000000000000000000000000000000000000000000000000000008152600401610e019061308a565b60405180910390fd5b60005b82811015610e3d57610e2a848284610e2591906130d9565b61199c565b8080610e359061312f565b915050610e0d565b5081600f54610e4c9190613178565b600f81905550505050565b6000600a60009054906101000a900473ffffffffffffffffffffffffffffffffffffffff16905090565b610e89611858565b80600c8190555050565b600a60149054906101000a900460ff16610ee2576040517f08c379a0000000000000000000000000000000000000000000000000000000008152600401610ed9906131f8565b60405180910390fd5b600081118015610ef45750600d548111155b610eff600d546119ba565b604051602001610f0f91906132ec565b60405160208183030381529060405290610f5f576040517f08c379a0000000000000000000000000000000000000000000000000000000008152600401610f569190612735565b60405180910390fd5b50600e5481610f6c61096e565b610f7691906130d9565b1115610fb7576040517f08c379a0000000000000000000000000000000000000000000000000000000008152600401610fae9061338b565b60405180910390fd5b80600c54610fc591906133ab565b341015611007576040517f08c379a0000000000000000000000000000000000000000000000000000000008152600401610ffe90613451565b60405180910390fd5b60005b8181101561104e57600061101c61096e565b9050600e5461102961096e565b101561103a57611039338261199c565b5b5080806110469061312f565b91505061100a565b5050565b60606001805461106190612bbf565b80601f016020809104026020016040519081016040528092919081815260200182805461108d90612bbf565b80156110da5780601f106110af576101008083540402835291602001916110da565b820191906000526020600020905b8154815290600101906020018083116110bd57829003601f168201915b5050505050905090565b600c5481565b6110fc6110f561149b565b8383611b1b565b5050565b61111161110b61149b565b8361155c565b611150576040517f08c379a000000000000000000000000000000000000000000000000000000000815260040161114790612d87565b60405180910390fd5b61115c84848484611c88565b50505050565b61116a611858565b6001600a60146101000a81548160ff021916908315150217905550565b606061119282611ce4565b6111d1576040517f08c379a00000000000000000000000000000000000000000000000000000000081526004016111c8906134e3565b60405180910390fd5b6000600b80546111e090612bbf565b9050116111fe5760405180602001604052806000815250905061122c565b600b611209836119ba565b60405160200161121a9291906135e3565b60405160208183030381529060405290505b919050565b600f5481565b600e5481565b6000600560008473ffffffffffffffffffffffffffffffffffffffff1673ffffffffffffffffffffffffffffffffffffffff16815260200190815260200160002060008373ffffffffffffffffffffffffffffffffffffffff1673ffffffffffffffffffffffffffffffffffffffff16815260200190815260200160002060009054906101000a900460ff16905092915050565b600a60149054906101000a900460ff1681565b6112ec611858565b600073ffffffffffffffffffffffffffffffffffffffff168173ffffffffffffffffffffffffffffffffffffffff16141561135c576040517f08c379a000000000000000000000000000000000000000000000000000000000815260040161135390613684565b60405180910390fd5b611365816118d6565b50565b600d5481565b60007f80ac58cd000000000000000000000000000000000000000000000000000000007bffffffffffffffffffffffffffffffffffffffffffffffffffffffff1916827bffffffffffffffffffffffffffffffffffffffffffffffffffffffff1916148061143957507f5b5e139f000000000000000000000000000000000000000000000000000000007bffffffffffffffffffffffffffffffffffffffffffffffffffffffff1916827bffffffffffffffffffffffffffffffffffffffffffffffffffffffff1916145b80611449575061144882611d50565b5b9050919050565b61145981611ce4565b611498576040517f08c379a000000000000000000000000000000000000000000000000000000000815260040161148f90612f8c565b60405180910390fd5b50565b600033905090565b816004600083815260200190815260200160002060006101000a81548173ffffffffffffffffffffffffffffffffffffffff021916908373ffffffffffffffffffffffffffffffffffffffff160217905550808273ffffffffffffffffffffffffffffffffffffffff1661151683610b99565b73ffffffffffffffffffffffffffffffffffffffff167f8c5be1e5ebec7d5bd14f71427d1e84f3dd0314c0f7b2291e5b200ac8c7c3b92560405160405180910390a45050565b60008061156883610b99565b90508073ffffffffffffffffffffffffffffffffffffffff168473ffffffffffffffffffffffffffffffffffffffff1614806115aa57506115a9818561123d565b5b806115e857508373ffffffffffffffffffffffffffffffffffffffff166115d084610810565b73ffffffffffffffffffffffffffffffffffffffff16145b91505092915050565b8273ffffffffffffffffffffffffffffffffffffffff1661161182610b99565b73ffffffffffffffffffffffffffffffffffffffff1614611667576040517f08c379a000000000000000000000000000000000000000000000000000000000815260040161165e90613716565b60405180910390fd5b600073ffffffffffffffffffffffffffffffffffffffff168273ffffffffffffffffffffffffffffffffffffffff1614156116d7576040517f08c379a00000000000000000000000000000000000000000000000000000000081526004016116ce906137a8565b60405180910390fd5b6116e2838383611dba565b6116ed6000826114a3565b6001600360008573ffffffffffffffffffffffffffffffffffffffff1673ffffffffffffffffffffffffffffffffffffffff168152602001908152602001600020600082825461173d9190613178565b925050819055506001600360008473ffffffffffffffffffffffffffffffffffffffff1673ffffffffffffffffffffffffffffffffffffffff168152602001908152602001600020600082825461179491906130d9565b92505081905550816002600083815260200190815260200160002060006101000a81548173ffffffffffffffffffffffffffffffffffffffff021916908373ffffffffffffffffffffffffffffffffffffffff160217905550808273ffffffffffffffffffffffffffffffffffffffff168473ffffffffffffffffffffffffffffffffffffffff167fddf252ad1be2c89b69c2b068fc378daa952ba7f163c4a11628f55a4df523b3ef60405160405180910390a4611853838383611ece565b505050565b61186061149b565b73ffffffffffffffffffffffffffffffffffffffff1661187e610e57565b73ffffffffffffffffffffffffffffffffffffffff16146118d4576040517f08c379a00000000000000000000000000000000000000000000000000000000081526004016118cb90613814565b60405180910390fd5b565b6000600a60009054906101000a900473ffffffffffffffffffffffffffffffffffffffff16905081600a60006101000a81548173ffffffffffffffffffffffffffffffffffffffff021916908373ffffffffffffffffffffffffffffffffffffffff1602179055508173ffffffffffffffffffffffffffffffffffffffff168173ffffffffffffffffffffffffffffffffffffffff167f8be0079c531659141344cd1fd0a4f28419497f9722a3daafe3b4186f6b6457e060405160405180910390a35050565b6119b6828260405180602001604052806000815250611ed3565b5050565b60606000821415611a02576040518060400160405280600181526020017f30000000000000000000000000000000000000000000000000000000000000008152509050611b16565b600082905060005b60008214611a34578080611a1d9061312f565b915050600a82611a2d9190613863565b9150611a0a565b60008167ffffffffffffffff811115611a5057611a4f6129a2565b5b6040519080825280601f01601f191660200182016040528015611a825781602001600182028036833780820191505090505b5090505b60008514611b0f57600182611a9b9190613178565b9150600a85611aaa9190613894565b6030611ab691906130d9565b60f81b818381518110611acc57611acb612f11565b5b60200101907effffffffffffffffffffffffffffffffffffffffffffffffffffffffffffff1916908160001a905350600a85611b089190613863565b9450611a86565b8093505050505b919050565b8173ffffffffffffffffffffffffffffffffffffffff168373ffffffffffffffffffffffffffffffffffffffff161415611b8a576040517f08c379a0000000000000000000000000000000000000000000000000000000008152600401611b8190613911565b60405180910390fd5b80600560008573ffffffffffffffffffffffffffffffffffffffff1673ffffffffffffffffffffffffffffffffffffffff16815260200190815260200160002060008473ffffffffffffffffffffffffffffffffffffffff1673ffffffffffffffffffffffffffffffffffffffff16815260200190815260200160002060006101000a81548160ff0219169083151502179055508173ffffffffffffffffffffffffffffffffffffffff168373ffffffffffffffffffffffffffffffffffffffff167f17307eab39ab6107e8899845ad3d59bd9653f200f220920489ca2b5937696c3183604051611c7b9190612681565b60405180910390a3505050565b611c938484846115f1565b611c9f84848484611f2e565b611cde576040517f08c379a0000000000000000000000000000000000000000000000000000000008152600401611cd5906139a3565b60405180910390fd5b50505050565b60008073ffffffffffffffffffffffffffffffffffffffff166002600084815260200190815260200160002060009054906101000a900473ffffffffffffffffffffffffffffffffffffffff1673ffffffffffffffffffffffffffffffffffffffff1614159050919050565b60007f01ffc9a7000000000000000000000000000000000000000000000000000000007bffffffffffffffffffffffffffffffffffffffffffffffffffffffff1916827bffffffffffffffffffffffffffffffffffffffffffffffffffffffff1916149050919050565b611dc58383836120c5565b600073ffffffffffffffffffffffffffffffffffffffff168373ffffffffffffffffffffffffffffffffffffffff161415611e0857611e03816120ca565b611e47565b8173ffffffffffffffffffffffffffffffffffffffff168373ffffffffffffffffffffffffffffffffffffffff1614611e4657611e458382612113565b5b5b600073ffffffffffffffffffffffffffffffffffffffff168273ffffffffffffffffffffffffffffffffffffffff161415611e8a57611e8581612280565b611ec9565b8273ffffffffffffffffffffffffffffffffffffffff168273ffffffffffffffffffffffffffffffffffffffff1614611ec857611ec78282612351565b5b5b505050565b505050565b611edd83836123d0565b611eea6000848484611f2e565b611f29576040517f08c379a0000000000000000000000000000000000000000000000000000000008152600401611f20906139a3565b60405180910390fd5b505050565b6000611f4f8473ffffffffffffffffffffffffffffffffffffffff166125aa565b156120b8578373ffffffffffffffffffffffffffffffffffffffff1663150b7a02611f7861149b565b8786866040518563ffffffff1660e01b8152600401611f9a9493929190613a18565b602060405180830381600087803b158015611fb457600080fd5b505af1925050508015611fe557506040513d601f19601f82011682018060405250810190611fe29190613a79565b60015b612068573d8060008114612015576040519150601f19603f3d011682016040523d82523d6000602084013e61201a565b606091505b50600081511415612060576040517f08c379a0000000000000000000000000000000000000000000000000000000008152600401612057906139a3565b60405180910390fd5b805181602001fd5b63150b7a0260e01b7bffffffffffffffffffffffffffffffffffffffffffffffffffffffff1916817bffffffffffffffffffffffffffffffffffffffffffffffffffffffff1916149150506120bd565b600190505b949350505050565b505050565b6008805490506009600083815260200190815260200160002081905550600881908060018154018082558091505060019003906000526020600020016000909190919091505550565b6000600161212084610cd9565b61212a9190613178565b905060006007600084815260200190815260200160002054905081811461220f576000600660008673ffffffffffffffffffffffffffffffffffffffff1673ffffffffffffffffffffffffffffffffffffffff168152602001908152602001600020600084815260200190815260200160002054905080600660008773ffffffffffffffffffffffffffffffffffffffff1673ffffffffffffffffffffffffffffffffffffffff168152602001908152602001600020600084815260200190815260200160002081905550816007600083815260200190815260200160002081905550505b6007600084815260200190815260200160002060009055600660008573ffffffffffffffffffffffffffffffffffffffff1673ffffffffffffffffffffffffffffffffffffffff16815260200190815260200160002060008381526020019081526020016000206000905550505050565b600060016008805490506122949190613178565b90506000600960008481526020019081526020016000205490506000600883815481106122c4576122c3612f11565b5b9060005260206000200154905080600883815481106122e6576122e5612f11565b5b90600052602060002001819055508160096000838152602001908152602001600020819055506009600085815260200190815260200160002060009055600880548061233557612334613aa6565b5b6001900381819060005260206000200160009055905550505050565b600061235c83610cd9565b905081600660008573ffffffffffffffffffffffffffffffffffffffff1673ffffffffffffffffffffffffffffffffffffffff168152602001908152602001600020600083815260200190815260200160002081905550806007600084815260200190815260200160002081905550505050565b600073ffffffffffffffffffffffffffffffffffffffff168273ffffffffffffffffffffffffffffffffffffffff161415612440576040517f08c379a000000000000000000000000000000000000000000000000000000000815260040161243790613b21565b60405180910390fd5b61244981611ce4565b15612489576040517f08c379a000000000000000000000000000000000000000000000000000000000815260040161248090613b8d565b60405180910390fd5b61249560008383611dba565b6001600360008473ffffffffffffffffffffffffffffffffffffffff1673ffffffffffffffffffffffffffffffffffffffff16815260200190815260200160002060008282546124e591906130d9565b92505081905550816002600083815260200190815260200160002060006101000a81548173ffffffffffffffffffffffffffffffffffffffff021916908373ffffffffffffffffffffffffffffffffffffffff160217905550808273ffffffffffffffffffffffffffffffffffffffff16600073ffffffffffffffffffffffffffffffffffffffff167fddf252ad1be2c89b69c2b068fc378daa952ba7f163c4a11628f55a4df523b3ef60405160405180910390a46125a660008383611ece565b5050565b6000808273ffffffffffffffffffffffffffffffffffffffff163b119050919050565b6000604051905090565b600080fd5b600080fd5b60007fffffffff0000000000000000000000000000000000000000000000000000000082169050919050565b612616816125e1565b811461262157600080fd5b50565b6000813590506126338161260d565b92915050565b60006020828403121561264f5761264e6125d7565b5b600061265d84828501612624565b91505092915050565b60008115159050919050565b61267b81612666565b82525050565b60006020820190506126966000830184612672565b92915050565b600081519050919050565b600082825260208201905092915050565b60005b838110156126d65780820151818401526020810190506126bb565b838111156126e5576000848401525b50505050565b6000601f19601f8301169050919050565b60006127078261269c565b61271181856126a7565b93506127218185602086016126b8565b61272a816126eb565b840191505092915050565b6000602082019050818103600083015261274f81846126fc565b905092915050565b6000819050919050565b61276a81612757565b811461277557600080fd5b50565b60008135905061278781612761565b92915050565b6000602082840312156127a3576127a26125d7565b5b60006127b184828501612778565b91505092915050565b600073ffffffffffffffffffffffffffffffffffffffff82169050919050565b60006127e5826127ba565b9050919050565b6127f5816127da565b82525050565b600060208201905061281060008301846127ec565b92915050565b61281f816127da565b811461282a57600080fd5b50565b60008135905061283c81612816565b92915050565b60008060408385031215612859576128586125d7565b5b60006128678582860161282d565b925050602061287885828601612778565b9150509250929050565b61288b81612757565b82525050565b60006020820190506128a66000830184612882565b92915050565b6000806000606084860312156128c5576128c46125d7565b5b60006128d38682870161282d565b93505060206128e48682870161282d565b92505060406128f586828701612778565b9150509250925092565b600060208284031215612915576129146125d7565b5b60006129238482850161282d565b91505092915050565b61293581612666565b811461294057600080fd5b50565b6000813590506129528161292c565b92915050565b6000806040838503121561296f5761296e6125d7565b5b600061297d8582860161282d565b925050602061298e85828601612943565b9150509250929050565b600080fd5b600080fd5b7f4e487b7100000000000000000000000000000000000000000000000000000000600052604160045260246000fd5b6129da826126eb565b810181811067ffffffffffffffff821117156129f9576129f86129a2565b5b80604052505050565b6000612a0c6125cd565b9050612a1882826129d1565b919050565b600067ffffffffffffffff821115612a3857612a376129a2565b5b612a41826126eb565b9050602081019050919050565b82818337600083830152505050565b6000612a70612a6b84612a1d565b612a02565b905082815260208101848484011115612a8c57612a8b61299d565b5b612a97848285612a4e565b509392505050565b600082601f830112612ab457612ab3612998565b5b8135612ac4848260208601612a5d565b91505092915050565b60008060008060808587031215612ae757612ae66125d7565b5b6000612af58782880161282d565b9450506020612b068782880161282d565b9350506040612b1787828801612778565b925050606085013567ffffffffffffffff811115612b3857612b376125dc565b5b612b4487828801612a9f565b91505092959194509250565b60008060408385031215612b6757612b666125d7565b5b6000612b758582860161282d565b9250506020612b868582860161282d565b9150509250929050565b7f4e487b7100000000000000000000000000000000000000000000000000000000600052602260045260246000fd5b60006002820490506001821680612bd757607f821691505b60208210811415612beb57612bea612b90565b5b50919050565b7f4552433732313a20617070726f76616c20746f2063757272656e74206f776e6560008201527f7200000000000000000000000000000000000000000000000000000000000000602082015250565b6000612c4d6021836126a7565b9150612c5882612bf1565b604082019050919050565b60006020820190508181036000830152612c7c81612c40565b9050919050565b7f4552433732313a20617070726f76652063616c6c6572206973206e6f7420746f60008201527f6b656e206f776e6572206e6f7220617070726f76656420666f7220616c6c0000602082015250565b6000612cdf603e836126a7565b9150612cea82612c83565b604082019050919050565b60006020820190508181036000830152612d0e81612cd2565b9050919050565b7f4552433732313a2063616c6c6572206973206e6f7420746f6b656e206f776e6560008201527f72206e6f7220617070726f766564000000000000000000000000000000000000602082015250565b6000612d71602e836126a7565b9150612d7c82612d15565b604082019050919050565b60006020820190508181036000830152612da081612d64565b9050919050565b7f455243373231456e756d657261626c653a206f776e657220696e646578206f7560008201527f74206f6620626f756e6473000000000000000000000000000000000000000000602082015250565b6000612e03602b836126a7565b9150612e0e82612da7565b604082019050919050565b60006020820190508181036000830152612e3281612df6565b9050919050565b600081905092915050565b50565b6000612e54600083612e39565b9150612e5f82612e44565b600082019050919050565b6000612e7582612e47565b9150819050919050565b7f455243373231456e756d657261626c653a20676c6f62616c20696e646578206f60008201527f7574206f6620626f756e64730000000000000000000000000000000000000000602082015250565b6000612edb602c836126a7565b9150612ee682612e7f565b604082019050919050565b60006020820190508181036000830152612f0a81612ece565b9050919050565b7f4e487b7100000000000000000000000000000000000000000000000000000000600052603260045260246000fd5b7f4552433732313a20696e76616c696420746f6b656e2049440000000000000000600082015250565b6000612f766018836126a7565b9150612f8182612f40565b602082019050919050565b60006020820190508181036000830152612fa581612f69565b9050919050565b7f4552433732313a2061646472657373207a65726f206973206e6f74206120766160008201527f6c6964206f776e65720000000000000000000000000000000000000000000000602082015250565b60006130086029836126a7565b915061301382612fac565b604082019050919050565b6000602082019050818103600083015261303781612ffb565b9050919050565b7f4e6f7420656e6f7567682072657365727665206c65667420666f72207465616d600082015250565b60006130746020836126a7565b915061307f8261303e565b602082019050919050565b600060208201905081810360008301526130a381613067565b9050919050565b7f4e487b7100000000000000000000000000000000000000000000000000000000600052601160045260246000fd5b60006130e482612757565b91506130ef83612757565b9250827fffffffffffffffffffffffffffffffffffffffffffffffffffffffffffffffff03821115613124576131236130aa565b5b828201905092915050565b600061313a82612757565b91507fffffffffffffffffffffffffffffffffffffffffffffffffffffffffffffffff82141561316d5761316c6130aa565b5b600182019050919050565b600061318382612757565b915061318e83612757565b9250828210156131a1576131a06130aa565b5b828203905092915050565b7f53616c65206861736e2774206265656e20616374697661746564207965740000600082015250565b60006131e2601e836126a7565b91506131ed826131ac565b602082019050919050565b60006020820190508181036000830152613211816131d5565b9050919050565b600081905092915050565b7f43616e206e6f74206d696e74206d6f7265207468616e20000000000000000000600082015250565b6000613259601783613218565b915061326482613223565b601782019050919050565b600061327a8261269c565b6132848185613218565b93506132948185602086016126b8565b80840191505092915050565b7f20746f6b656e7320696e20612073696e676c65207472616e73616374696f6e00600082015250565b60006132d6601f83613218565b91506132e1826132a0565b601f82019050919050565b60006132f78261324c565b9150613303828461326f565b915061330e826132c9565b915081905092915050565b7f507572636861736520776f756c642065786365656420617661696c61626c652060008201527f737570706c79206f66204e465473000000000000000000000000000000000000602082015250565b6000613375602e836126a7565b915061338082613319565b604082019050919050565b600060208201905081810360008301526133a481613368565b9050919050565b60006133b682612757565b91506133c183612757565b9250817fffffffffffffffffffffffffffffffffffffffffffffffffffffffffffffffff04831182151516156133fa576133f96130aa565b5b828202905092915050565b7f4e6f7420656e6f7567682045746865722073656e740000000000000000000000600082015250565b600061343b6015836126a7565b915061344682613405565b602082019050919050565b6000602082019050818103600083015261346a8161342e565b9050919050565b7f4552433732314d657461646174613a2055524920717565727920666f72206e6f60008201527f6e6578697374656e7420746f6b656e0000000000000000000000000000000000602082015250565b60006134cd602f836126a7565b91506134d882613471565b604082019050919050565b600060208201905081810360008301526134fc816134c0565b9050919050565b60008190508160005260206000209050919050565b6000815461352581612bbf565b61352f8186613218565b9450600182166000811461354a576001811461355b5761358e565b60ff1983168652818601935061358e565b61356485613503565b60005b8381101561358657815481890152600182019150602081019050613567565b838801955050505b50505092915050565b7f2e6a736f6e000000000000000000000000000000000000000000000000000000600082015250565b60006135cd600583613218565b91506135d882613597565b600582019050919050565b60006135ef8285613518565b91506135fb828461326f565b9150613606826135c0565b91508190509392505050565b7f4f776e61626c653a206e6577206f776e657220697320746865207a65726f206160008201527f6464726573730000000000000000000000000000000000000000000000000000602082015250565b600061366e6026836126a7565b915061367982613612565b604082019050919050565b6000602082019050818103600083015261369d81613661565b9050919050565b7f4552433732313a207472616e736665722066726f6d20696e636f72726563742060008201527f6f776e6572000000000000000000000000000000000000000000000000000000602082015250565b60006137006025836126a7565b915061370b826136a4565b604082019050919050565b6000602082019050818103600083015261372f816136f3565b9050919050565b7f4552433732313a207472616e7366657220746f20746865207a65726f2061646460008201527f7265737300000000000000000000000000000000000000000000000000000000602082015250565b60006137926024836126a7565b915061379d82613736565b604082019050919050565b600060208201905081810360008301526137c181613785565b9050919050565b7f4f776e61626c653a2063616c6c6572206973206e6f7420746865206f776e6572600082015250565b60006137fe6020836126a7565b9150613809826137c8565b602082019050919050565b6000602082019050818103600083015261382d816137f1565b9050919050565b7f4e487b7100000000000000000000000000000000000000000000000000000000600052601260045260246000fd5b600061386e82612757565b915061387983612757565b92508261388957613888613834565b5b828204905092915050565b600061389f82612757565b91506138aa83612757565b9250826138ba576138b9613834565b5b828206905092915050565b7f4552433732313a20617070726f766520746f2063616c6c657200000000000000600082015250565b60006138fb6019836126a7565b9150613906826138c5565b602082019050919050565b6000602082019050818103600083015261392a816138ee565b9050919050565b7f4552433732313a207472616e7366657220746f206e6f6e20455243373231526560008201527f63656976657220696d706c656d656e7465720000000000000000000000000000602082015250565b600061398d6032836126a7565b915061399882613931565b604082019050919050565b600060208201905081810360008301526139bc81613980565b9050919050565b600081519050919050565b600082825260208201905092915050565b60006139ea826139c3565b6139f481856139ce565b9350613a048185602086016126b8565b613a0d816126eb565b840191505092915050565b6000608082019050613a2d60008301876127ec565b613a3a60208301866127ec565b613a476040830185612882565b8181036060830152613a5981846139df565b905095945050505050565b600081519050613a738161260d565b92915050565b600060208284031215613a8f57613a8e6125d7565b5b6000613a9d84828501613a64565b91505092915050565b7f4e487b7100000000000000000000000000000000000000000000000000000000600052603160045260246000fd5b7f4552433732313a206d696e7420746f20746865207a65726f2061646472657373600082015250565b6000613b0b6020836126a7565b9150613b1682613ad5565b602082019050919050565b60006020820190508181036000830152613b3a81613afe565b9050919050565b7f4552433732313a20746f6b656e20616c7265616479206d696e74656400000000600082015250565b6000613b77601c836126a7565b9150613b8282613b41565b602082019050919050565b60006020820190508181036000830152613ba681613b6a565b905091905056fea2646970667358221220a840c4dc8bcc2f74a6b7a8bbcc45a103bff6cc7d1760090bbf0760d55426ab0264736f6c63430008090033",
  "linkReferences": {},
  "deployedLinkReferences": {}
}